:020000040000FA
:100000000A128A11F32F00308A000408840A82073A
:1000100000343134323433344134343435343634CA
:10002000423437343834393443342A343034233486
:100030002D345434653463346C3461343A342034B0
:1000400020342034203420342034203400347334DD
:1000500065346E3468346134203463346F34723400
:10006000723465347434613420340034743465344B
:0600700073347434003407
:1004E800F1001530F0007108033E84007008831392
:1004F80080003230F000710A840070088000080023
:10050800F0308316031386008316031789018316B8
:1005180003138113FF309500FF3083120313860005
:100528000800F5007508F40006300310F40DFF3ECE
:10053800031D992A730874077F39803E0A128A11AD
:10054800D0240A128A110800B72AC730F200AC2A50
:10055800F20BAB2AAF2AB02A0130F0020030031C9C
:10056800F103F102B72A70087104031DBC2ABD2AE1
:10057800A92ABE2A0800F401F501C22A701CC52A5E
:10058800C62ACC2A7208F4070318F50A7308F50777
:1005980001300310F20DF30DFF3E031DCD2A01308B
:1005A8000310F10CF00CFF3E031DD42A70087104EF
:1005B800031DDF2AE02AC22AE12A7508F10074081F
:1005C800F000E62A0800FA007608F8007808F90032
:1005D8007608F8007808F3007A080A128A1195223A
:1005E8000A128A110C2B770884000A128A11032038
:1005F8000A128A110A128A111A230A128A11013060
:10060800F8007808F7070130F8007808F9070C2B8C
:10061800770884000A128A1103200A128A11003A04
:10062800031D172B182BF72A192B0800F200831229
:10063800031308157208F00004300310F00CFF3E95
:10064800031D212B7008F10004300310F10DFF3E4B
:10065800031D292B08080F397104880088110D30F3
:10066800F000F00B352B8312031388150815720858
:10067800F00004300310F00DFF3E031D3E2B080868
:100688000F397004880088110D30F000F00B4A2BE8
:1006980083120313881508006430F0000030F1005D
:1006A8000A128A11A8220A128A1183160313081142
:1006B800881108128812081388136430F00000307B
:1006C800F1000A128A11A8220A128A11831203134E
:1006D800881528300A128A11D0240A128A110C307F
:1006E8000A128A11D0240A128A1101300A128A11B8
:1006F800D0240A128A1102300A128A11D0240A124E
:100708008A116430F0000030F1000A128A11A82220
:100718000A128A110800F601F31F932B942B9C2BC5
:10072800F209F309F20A0319F30AF601F60A9C2BF7
:10073800F11F9F2BA02BA62BF009F109F00A031932
:10074800F10AA62B700871040319AB2BAC2BE12B13
:10075800F501F50ABB2B01300310F00DF10DFF3E3A
:10076800031DB02B0130F4007408F507BB2BF11FF3
:10077800BE2BBF2BAF2BC12BC12B71087302031DDE
:10078800C72B70087202031CCA2BCB2BD22B700804
:10079800F2027108031CF303F302D22B0130031099
:1007A800F10CF00CFF3E031DD32B0130F502031DA5
:1007B800DE2BDF2BC12BE12BE12B76080319E52B70
:1007C800E62BEC2BF209F309F20A0319F30AEC2BD6
:1007D8007308F1007208F000F12B0800F701F80126
:1007E80004307802031CF92BFA2BFC2B5C2C5C2CB4
:1007F8000130F000780A022C0310F00DFF3E031DB3
:10080800002C7008FF3A831203138600F9010430A4
:100818007902031C102C112C132C512C512C060975
:10082800F000F101F109790AF2001030F30000300C
:10083800F400212C0310F30DF40DF20B1E2C70089C
:100848007305F50071087405F60075087604031938
:100858002E2C2F2C462C7808F00002300310F00DB7
:10086800FF3E031D322C01307007F1007908710733
:1008780084000A128A1103200A128A11F2007208EF
:10088800F700462C0130F0007008F90704307902AF
:10089800031C4F2C502C132C512C0130F0007008E5
:1008A800F80704307802031C5A2C5B2CFC2B5C2CB8
:1008B80077085E2C0800F601F11F632C642C6C2C61
:1008C800F009F109F00A0319F10AF601F60A6C2C8D
:1008D800F31F6F2C702C7A2CF209F309F20A031912
:1008E800F30A0130F4007408F6067A2CF701F801CF
:1008F800700871040319812C822CBF2CF501F50AAC
:10090800912C01300310F00DF10DFF3E031D862CD4
:100918000130F4007408F507912CF11F942C952CE4
:10092800852C972C972C01300310F70DF80DFF3EFE
:10093800031D982C71087302031DA42C7008720201
:10094800031CA72CA82CB02C7008F2027108031CF9
:10095800F303F3027714B02C01300310F10CF00C00
:10096800FF3E031DB12C0130F502031DBC2CBD2C2C
:10097800972CBF2CBF2C76080319C32CC42CCA2C67
:10098800F709F809F70A0319F80ACA2C7808F100D8
:100998007708F000CF2C0800F20083120313081127
:1009A8007208F00004300310F00CFF3E031DD72C32
:1009B8007008F10004300310F10DFF3E031DDF2C19
:1009C80008080F3971048800881172030319ED2C87
:1009D800EE2CF52C02307206031DF32CF42CFF2CA0
:1009E800F52C0330F1009730F000F00BF92CF10BE7
:1009F800F92CFE2C042D0D30F000F00B012D042DE8
:100A0800831203138815F0307205F0002030700649
:100A1800031D0F2D102D2E2D08117208F000043023
:100A28000310F00CFF3E031D142D7008F100043074
:100A38000310F10DFF3E031D1C2D08080F3971042A
:100A4800880088110D30F000F00B282D8312031355
:100A580088152E2D08117208F00004300310F00DCF
:100A6800FF3E031D322D08080F39700488008811D5
:100A780072030319402D412D482D02307206031DC3
:100A8800462D472D522D482D0330F1009730F000A8
:100A9800F00B4C2DF10B4C2D512D572D0D30F00036
:100AA800F00B542D572D8312031388150800831259
:100AB8000313AB003608031D622D632D1A2E200880
:100AC8000319672D682D1A2E30302002031C6D2D56
:100AD8006E2DBE2D3A3020020318732D742DBE2DB5
:100AE8002B08840083130008F000840A0008F10032
:100AF8000A30F2000030F3000A128A11BF220A12EB
:100B08008A118312031320087007F900710803186B
:100B1800710AFA007908D03EA7007A080318013E46
:100B2800FF3EA800A901AA012508F9002608FA0035
:100B3800FB01FC017C08803AFF002A08803A7F020A
:100B4800031DB02D29087B02031DB02D28087A0249
:100B5800031DB02D27087902031CB32DB42DBE2D1B
:100B68002B088400270883138000840A2808800043
:100B7800BE2DBE2D20082106031DC32DC42DFE2D1C
:100B88000A30F0000030F1002B08840083130008BD
:100B9800F200840A0008F3000A128A115F240A127C
:100BA8008A118312031324087102031DDD2D230803
:100BB8007002031CE02DE12DFE2D0A30F0000030FC
:100BC800F1002B08840083130008F200840A00084F
:100BD800F3000A128A115F240A128A11831203137E
:100BE8002B088400700883138000840A7108800031
:100BF800FE2DFE2D20082206031D032E042E1A2E7C
:100C08002B08840083130008F900840A0008FA00FE
:100C1800F909FA09F90A0319FA0A2B08840079086C
:100C28008000840A7A0880001A2E1A2E2008F900FB
:100C38007908B600080083120313A300FB1B252EB6
:100C4800272E0130282E0030A0002008A5002508F6
:100C580003192F2E302E362EFA09FB09FA0A03192A
:100C6800FB0A362E7908A0002008F30023080A1290
:100C78008A1195220A128A11103083120313A600D2
:100C88002730A7000530A0002008A4007A2E831280
:100C980003132708F1002608F0007B08F3007A0800
:100CA800F2000A128A115F240A128A11700871046C
:100CB800031D5F2E602E922E013083120313A402AF
:100CC800662E922E0A30F0000030F1002708F3005B
:100CD8002608F2000A128A115F240A128A11710882
:100CE80083120313A7007008A6007A2E2708803AFB
:100CF800FF0080307F02031D832E01302602031877
:100D0800862E872E4B2E922E922E20300A128A1172
:100D18001A230A128A110130FC02922E831203133D
:100D280024082507A000A101A10D2108803AA200EE
:100D380080302202031DA22E7C0820020318A52E53
:100D4800A62EAE2E02307C020318AB2EAC2E892EB6
:100D5800AE2EAE2E8312031325080319B42EB52E1A
:100D6800BC2E2D300A128A111A230A128A11BC2E9F
:100D7800831203132708F1002608F0007B08F3000C
:100D88007A08F2000A128A115F240A128A1170087E
:100D9800303E0A128A111A230A128A118312031387
:100DA8002708F1002608F0007B08F3007A08F20013
:100DB8000A128A118F230A128A117108FB0070081F
:100DC800FA000A30F0000030F100831203132708FC
:100DD800F3002608F2000A128A115F240A128A1107
:100DE800710883120313A7007008A6002708803A29
:100DF800FF0080307F02031D032F013026020318F5
:100E0800062F072FBC2E082F080083120313B201E8
:100E1800B301B0010A128A1150230A128A110A1268
:100E28008A1184220A128A11192F0A128A11F223AE
:100E38000A128A1183120313AC002C08B000F601C1
:100E48001130AC002C08F70000300A128A11E72292
:100E58000A128A11831203133008AC002C08A00070
:100E68002A30AD002D08A1002D30AE002E08A200BA
:100E78000030A300A4002030A5004E30A600323078
:100E88000A128A115B250A128A110730831203138A
:100E9800AC002C08F9003308FB003208FA000530D2
:100EA800AD002D08FC0000300A128A111F260A1214
:100EB8008A1137300A128A1174220A128A110D30E7
:100EC80083120313AC002C08F9003A08AD00AE01F8
:100ED8002D08FA002E08FB000330AF002F08FC0095
:100EE80000300A128A111F260A128A110D30831245
:100EF8000313AC002C08F9003808AD00AE012D082A
:100F0800FA002E08FB000330AF002F08FC00013068
:100F18000A128A111F260A128A11D92F0330831246
:100F2800031332063304031D9A2F9B2FAA2F09306F
:100F3800AC002C08F6002E30AD002D08F70001306B
:100F48000A128A11E7220A128A11AA2F0A3083127A
:100F58000313AC002C08B100192FED30320633040E
:100F6800031DB72FB82FC82FF6011F30AC002C086F
:100F7800F70001300A128A11E7220A128A11831235
:100F88000313B201B301C82FB101192FE830F000E3
:100F98000330F1000A128A11A8220A128A11831258
:100FA8000313B101B10A192F192F83120313310842
:100FB800AC00AD012D08003A0319E32F192F2C08B6
:100FC800003A0319922F013A0319B12F0B3A03196A
:100FD800CA2F192F192F192F0A128A1100288312C4
:100FE8000313B401B501B601B701B801B901BA01DB
:080FF80083010A128A11092F7E
:04400E00D2E0FFFFFE
:00000001FF
